{
  "contractName": "Demo",
  "abi": [
    {
      "constant": true,
      "inputs": [],
      "name": "balance",
      "outputs": [
        {
          "name": "",
          "type": "uint256"
        }
      ],
      "payable": false,
      "stateMutability": "view",
      "type": "function",
      "signature": "0xb69ef8a8"
    },
    {
      "inputs": [],
      "payable": false,
      "stateMutability": "nonpayable",
      "type": "constructor",
      "signature": "constructor"
    },
    {
      "constant": false,
      "inputs": [],
      "name": "contribute",
      "outputs": [],
      "payable": true,
      "stateMutability": "payable",
      "type": "function",
      "signature": "0xd7bb99ba"
    }
  ],
  "bytecode": "0x608060405234801561001057600080fd5b506000808190555060c1806100266000396000f3fe6080604052600436106049576000357c0100000000000000000000000000000000000000000000000000000000900463ffffffff168063b69ef8a814604e578063d7bb99ba146076575b600080fd5b348015605957600080fd5b506060607e565b6040518082815260200191505060405180910390f35b607c6084565b005b60005481565b34600080828254019250508190555056fea165627a7a723058200a98f1d304d20ec1b6dd2a43fd1675ca3ebe9266918150b010397feb9eca06800029",
  "source": "pragma solidity ^0.5.0;\n\ncontract Demo {\n    uint public balance;\n\n    // Initialize global variables\n    constructor() public\n    {\n        balance = 0;\n    }\n\n    // The payable keyword allows this function to accept Ether\n    function contribute() public payable\n    {\n        // msg.value is the value of Ether sent in a transaction\n        balance += msg.value;\n    }\n}",
  "sourcePath": "/home/kamlesh/Documents/Demo_project/contracts/Demo.sol",
  "compiler": {
    "name": "solc",
    "version": "0.5.0+commit.1d4f565a.Emscripten.clang"
  },
  "schemaVersion": "3.0.1",
  "updatedAt": "2021-06-14T11:32:34.453Z",
  "devdoc": {
    "methods": {}
  },
  "userdoc": {
    "methods": {}
  }
}